:100000000A128A11DF2FFF1B0D2883137F18831715
:100010000008840A0319FF0A080000308A00040857
:10002000840A8207003401340034003400340A3476
:100030000034003400346434003400340034E834D4
:100040000334003400341034273400340034A03436
:10005000863401340034403442340F340034803468
:100060009634983400340034E134F53405340034E7
:10007000CA349A343B340134003400340034103430
:1000800000340034003400340134003400340034CF
:1000900010340034003400340034013400340034AF
:1000A000003410340034003400340034013400349F
:1000B0000034003410343034313432343334343496
:1000C00035343634373438343934413442344334B7
:1000D00044344534463400343034783425343034B4
:1000E000323458340A340034733474346134743420
:1000F00065343A3400342034203433343A342034F4
:1001000000342034203434343A342034003464341D
:100110006134743461343A340034253475342C3409
:10012000253475340034203431343A3420340034EA
:10013000203432343A342034003425346C3475346D
:1001400000344F344E34203400344F344634463477
:0601500000343B340034D2
:10015C000A128A11B5208316031311150800831691
:10016C00031311081F3903191419B5280800F000DE
:10017C00831203130C1EBE2870089900080064003B
:10018C008001840A0406031900340406C628F00012
:10019C000A128A11B5207008831203139300080009
:1001AC0041344934513459346134693471347934BB
:1001BC00083401300A128A1118210A128A110D30E2
:1001CC00F600F60BE7280800F100F0013A30710256
:1001DC000318F62830307102031CF628F001F00ADF
:1001EC00700C08008316031387150716283083122A
:1001FC0003139400831603139101940109309300A7
:10020C0008007E088A007F08820007210A128A11E2
:10021C008000840A04087D0603190034FF0A0319C0
:10022C00FE0A0B29F50083120313D8017508F03967
:10023C000A128A114D210A128A117508F400033032
:10024C000310F40DFF3E031D26290310740DF03925
:10025C000A128A114D210800F1000A128A15F92799
:10026C000A128A118312031362080A128A11CD2012
:10027C000A128A1171088312031361040A128A117B
:10028C00CD200A128A110A128A11AE200800F3003E
:10029C00831203135808F2007208F304730804382D
:1002AC000A128A1132210A128A117308FB390A12B6
:1002BC008A1132210A128A111030F200F20B6429D1
:1002CC0000000800193083160313990018128312CA
:1002DC000313981783160313181318159816831203
:1002EC000313181318168030831603139F0088010C
:1002FC00F0308312031388000800F50083120313F7
:10030C00D801D80A7508F0390A128A114D210A123F
:10031C008A117508F40003300310F40DFF3E031D21
:10032C0092290310740DF0390A128A114D2108001C
:10033C00F300083073020318AB297308593E84008C
:10034C0083130008831203139F00F930F20000009E
:10035C00F20BAD29B1290000831203131F151F19CD
:10036C00B5291E08F101F107831603131E08F001CD
:10037C00F0070800F800F601F7017608780784000A
:10038C000A128A110D200A128A110038031908006A
:10039C007608780784000A128A110D200A128A1135
:1003AC000A128A1183210A128A110130F6070318E6
:1003BC00F70A0030F707C329720883120313FF00F2
:1003CC00710884000A128A1103200A128A1100385B
:1003DC0003190800720883120313FF0071088400CC
:1003EC000A128A1103200A128A110A128A11BD20DC
:1003FC000A128A110130F1070318F20AE229F401FA
:10040C00F501701C0F2A7208F4070318F50A73081B
:10041C00F50701300310F20DF30DFF3E031D102AFA
:10042C0001300310F10CF00CFF3E031D172A71086C
:10043C007004031D072A7508F101F1077408F00117
:10044C00F0070800F8008030F7007708F900392A27
:10045C00C030352A9430352AD430352A8030F70014
:10046C007708F900442A7808023A03192E2A013A2F
:10047C000319302A073A0319322A342A76087907E5
:10048C00FF3E0A128A111821080083120313230855
:10049C002204210420040319902AA901A90AA31BF0
:1004AC00652A0130A8000310A00DA10DA20DA30D0B
:1004BC00A80B592A0130A8002808A907552A230897
:1004CC002702031D732A22082602031D732A210802
:1004DC002502031D732A20082402031C832A2008EA
:1004EC00A4022108031C210FA5022208031C220FC1
:1004FC00A6022308031C230FA70201300310A30C30
:10050C00A20CA10CA00CFF3E031D842A0130A902F1
:10051C00031D652A2708A3002608A2002508A100B0
:10052C002408A0000800F601F60A01300A128A110C
:10053C0028220A128A1181300A128A11C0210A1249
:10054C008A1183120313081EAD2A9330AE2A8F3002
:10055C000A128A11C0210A128A1169300A128A11F0
:10056C00C0210A128A1183120313081FBF2A933069
:10057C00C02A8F300A128A11C0210A128A11F60180
:10058C00F60A02300A128A1128220A128A118630BF
:10059C000A128A11C0210A128A1183120313881EAF
:1005AC00D92A9330DA2A8F300A128A11C0210A1202
:1005BC008A116F300A128A11C0210A128A11831211
:1005CC000313881FEE2A93300A128A11C0210800E7
:1005DC008F300A128A11C02108000030FC00003054
:1005EC00FB000030FA000030F9007308720471044B
:1005FC0070040319482BFD01FD0AF31B132B01306A
:10060C00F8000310F00DF10DF20DF30DF80B072BA4
:10061C000130F8007808FD07032B0130F8000310B7
:10062C00F90DFA0DFB0DFC0DF80B152B7308770269
:10063C00031D2A2B72087602031D2A2B71087502E2
:10064C00031D2A2B70087402031C3B2B7008F40248
:10065C007108031C710FF5027208031C720FF6026D
:10066C007308031C730FF702791401300310F30C99
:10067C00F20CF10CF00CFF3E031D3C2B0130FD0283
:10068C00031D132B7C08F3007B08F2007A08F100A1
:10069C007908F0000800F8007808F6007608831254
:1006AC000313E20000300A128A1132210A128A1155
:1006BC002730F700F530F600F60B622BF70B622BA8
:1006CC0003300A128A1118210A128A110730F70016
:1006DC007D30F600F60B702BF70B702B03300A12E3
:1006EC008A1118210A128A110730F7007D30F600A2
:1006FC00F60B7E2BF70B7E2B03300A128A11182176
:10070C000A128A110730F7007D30F600F60B8C2B9D
:10071C00F70B8C2B02300A128A1118210A128A113B
:10072C000730F7007D30F600F60B9A2BF70B9A2B5F
:10073C0028300A128A1118210A128A114130F70046
:10074C00EE30F600F60BA82BF70BA82B00000C30A4
:10075C000A128A1118210A128A114130F700EE3060
:10076C00F600F60BB72BF70BB72B000001300A1273
:10077C008A1118210A128A114130F700EE30F60066
:10078C00F60BC62BF70BC62B000006300A128A118B
:10079C0018210A128A114130F700EE30F600F60BE0
:1007AC00D52BF70BD52B000008000A128A116821F3
:1007BC000A128A110A128A11F8200A128A114E3072
:1007CC000A128A1151230A128A110A128A11DF2085
:1007DC000A128A110A128A1199220A128A11831298
:1007EC0003138C1EF52B981CFD2B181218161A08C7
:1007FC00C100410883160313EB0041306B02031C4C
:10080C004C2C45306B0203184C2C6B08C33E8312E6
:10081C000313C100410883160313D0000130831267
:10082C000313C10083160313500A83120313202CE5
:10083C000310C10DFF3E031D1E2C410808050319B2
:10084C003A2C0130C10083160313500A8312031390
:10085C00312C0310C10DFF3E031D2F2C4108FF3A14
:10086C00C200420888055C2C0130C10083160313BA
:10087C00500A83120313442C0310C10DFF3E031DB9
:10088C00422C4108C200420888045C2C83160313D6
:10089C006B08453A031D6A2C831203130130E306DF
:1008AC00631C5A2C88015C2CF03088000808C100AD
:1008BC00C201410883160313E90083120313420893
:1008CC0083160313EA00F02B831603136B08463AC6
:1008DC00031D2F2DD101D201003052020A30031911
:1008EC0051020318B22C00300A128A119E210A12EE
:1008FC008A1183160313510883120313C100410795
:10090C00D53E8400700883138000840A710880002F
:10091C0001300A128A119E210A128A1183160313BE
:10092C00510883120313C1004107443E8400700830
:10093C0083138000840A710880000130831603132E
:10094C00D1070318D20A0030D207003052020A3005
:10095C0003195102031C792C7530F1008030F20020
:10096C000A128A11E2210A128A1183160313D30187
:10097C00D4015408803AFF0080307F02031DC82C3C
:10098C000A3053020318252D7B3083120313C10048
:10099C004108AA0083160313530883120313C200E1
:1009AC004207D53E840083130008AB00840A00087C
:1009BC00AC0083160313530883120313C3004307BD
:1009CC00443E84000008AD00840A0008AE00A0304C
:1009DC000A128A116B250A128A11A030F10000301C
:1009EC00F2000A128A11E2210A128A1183160313E9
:1009FC005408803AFF0080307F02031D072D093018
:100A0C0053020318122D9730F1008030F2000A12B5
:100A1C008A11E2210A128A11013083160313D307BB
:100A2C000318D40A0030D4075408803AFF008030F1
:100A3C007F02031D232D0A305302031CCA2C603085
:100A4C00F1008030F2000A128A11E2210A128A1196
:100A5C00F52B831603136B08473A031DF52B6230F5
:100A6C00F1008030F2000A128A11E2210A128A1176
:100A7C005A3083120313C1004108AA0083160313D2
:100A8C006A0883120313AC01AC07831603136908BD
:100A9C0083120313AB01AB07C0300A128A116B250A
:100AAC000A128A11C030F1000030F2000A128A11C9
:100ABC00E2210A128A116030F1008030F2000A1231
:100ACC008A11E2210A128A11F52B83120313BD003D
:100ADC002B30AF002F08B5000130AA07FF302A07D2
:100AEC0084000A128A110D200A128A11AF002F08F5
:100AFC00C000C0080319D82F4008253A0319922DBD
:100B0C004008AF003D0884002F088313800001309B
:100B1C00AF002F08BD07722DBE01BF01BC019B2D7C
:100B2C003C150130AF002F08AA072A0884000A12CE
:100B3C008A110D200A128A11303A0319962DA62D0E
:100B4C002A0884000A128A110D200A128A110A122C
:100B5C008A11EA200A128A11031C002E8312031335
:100B6C00BE01BF010A30F0000030F1008312031304
:100B7C003F08F301F3073E08F201F2070A128A114B
:100B8C0005220A128A11710883120313BF01BF07D1
:100B9C007008BE01BE072A0884000A128A110D20B3
:100BAC000A128A11D03EAF00FF3003180030B0009B
:100BBC002F08BE070318BF0A3008BF070130AF006B
:100BCC002F08AA072A0884000A128A110D200A127B
:100BDC008A110A128A11EA200A128A11031C002EA9
:100BEC00B82D3C16002EBC171D2EC030AF002F08A0
:100BFC00BC041D2E013083120313AA07FF302A07F1
:100C0C0084000A128A110D200A128A11C000003ABF
:100C1C000319D82F583A0319F92D343A0319F72D23
:100C2C00193A0319FB2D0D3A0319F92D722D3C1E9F
:100C3C002F2E3508840083130008B800840A00089E
:100C4C00B900840A0008BA00840A0008BB0004300A
:100C5C003E2E3508840083130008AF00840A000878
:100C6C00B0002F08B8003008B900BA01BB0102303F
:100C7C00AF002F08B507C02EC001C00A40080A3AC1
:100C8C000319C92E4008AF0001300310AF0DFF3E11
:100C9C00031D4B2E03102F0D013E84000A128A11E6
:100CAC000D200A128A11B0000A128A110D200A12A4
:100CBC008A11B1000A128A110D200A128A11B2008F
:100CCC000A128A110D200A128A11B30033083B0252
:100CDC00031D7A2E32083A02031D7A2E310839028E
:100CEC00031D7A2E30083802031CC92E0130AF00C8
:100CFC002F08C007442EC001C00A4008083A031947
:100D0C00C92E4008AF0001300310AF0DFF3E031D8C
:100D1C008A2E03102F0D293E84000A128A110D20F1
:100D2C000A128A11B0000A128A110D200A128A11B5
:100D3C00B1000A128A110D200A128A11B2000A128D
:100D4C008A110D200A128A11B30033083B02031DCD
:100D5C00B92E32083A02031DB92E31083902031D8F
:100D6C00B92E30083802031CC92E0130AF002F08F1
:100D7C00C007832E3C08C039803A0319812E403AB3
:100D8C000319422EC92E4008AF00B001AF1BB003AF
:100D9C003008803AB1003F08803A3102031DD82E4A
:100DAC003E082F020318E82E831203134008AF00ED
:100DBC00B001AF1BB0032F08BE023008031CBF03E9
:100DCC00BF02EC2E83120313BE01BF013C1D042F86
:100DDC003F083E0403191D2F3030AF003D0884003E
:100DEC002F08831380000130AF002F08BD07FF30A0
:100DFC00BE070318BF0AFF30BF07EE2E3F083E04A4
:100E0C0003191D2F2030AF003D0884002F088313D9
:100E1C0080000130AF002F08BD07FF30BE0703185C
:100E2C00BF0AFF30BF073F083E04031D082F4008D0
:100E3C00B600B701B61BB703C02F0030A3000030BB
:100E4C00A2000030A1000A30A0003608AF0001302B
:100E5C000310AF0DFF3E031D2E2F03102F0D013E6F
:100E6C0084000A128A110D200A128A11F0000A124B
:100E7C008A110D200A128A11F1000A128A110D2012
:100E8C000A128A11F2000A128A110D200A128A1112
:100E9C00F3003B08F7003A08F6003908F50038086B
:100EAC00F4000A128A11F3220A128A1173088312AF
:100EBC000313A7007208A6007108A5007008A4000F
:100ECC000A128A114B220A128A1183120313200868
:100EDC00303EB0003008B42F3608AF00013003109C
:100EEC00AF0DFF3E031D752F03102F0D293E8400FF
:100EFC000A128A110D200A128A11F0000A128A11A4
:100F0C000D200A128A11F1000A128A110D200A1200
:100F1C008A11F2000A128A110D200A128A11F300AA
:100F2C003B08F7003A08F6003908F5003808F400D9
:100F3C000A128A11F3220A128A1170080F398312CD
:100F4C000313B0003008B4003408493E84000A1280
:100F5C008A110D200A128A11AF002F08C000400818
:100F6C00AF003D0884002F08831380000130AF00D0
:100F7C002F08BD07FF30B6070318B70AFF30B707B5
:100F8C00FF303706031DCC2FFF3036060319722DA8
:100F9C003C08C039803A0319722F403A0319232FA9
:100FAC00B52FB52F831203133D08840083138001E2
:100FBC000800E30183134430840059300A128A116B
:100FCC00C5200A128A11D5308400EC300A128A111D
:100FDC00C5200A128A116230FD000030FE00D630A6
:100FEC00FF00593084000A128A110B2183010A1266
:040FFC008A11DB2B50
:0E1FF2000A128A11B520831603131114080079
:02400E0071FF40
:00000001FF
