:100000000A128A11F72F00308A000408840A820736
:10001000003457346F3472346C3464342134003417
:0C002000483465346C346C346F340034A8
:100CE40008340A128A11812683160313111408008A
:100CF4000A128A118126831603131115080083161C
:100D0400031311081F3903191419812E0800F00068
:100D14000A128A11812670088312031393000800B3
:100D240083160313871507162830831203139400C0
:100D34008316031391019401093093000800F10014
:100D44000A128A1173260A128A117A080A128A115F
:100D540089260A128A1171087C040A128A118926CA
:100D64000A128A110A128A117A260800F500FB0178
:100D74007508F0390A128A11D0260A128A117508E8
:100D8400F40003300310F40DFF3E031DC42E0310C2
:100D9400740DF0390A128A11D0260800F3007B087A
:100DA400F2007208F304730804380A128A11A126A7
:100DB4000A128A117308FB390A128A11A1260A122F
:100DC4008A111030F200F20BE52E00000800F50045
:100DD400FB01FB0A7508F0390A128A11D0260A129F
:100DE4008A117508F40003300310F40DFF3E031D4F
:100DF400F62E0310740DF0390A128A11D026080059
:100E0400F800F601F7017608780784000A128A11BF
:100E140003200A128A11003803190800760878079B
:100E240084000A128A1103200A128A110A128A11F2
:100E3400E9260A128A110130F6070318F70A00306E
:100E4400F707052FF8008030F7007708F900352FF1
:100E5400C030312F9430312FD430312F8030F7000F
:100E64007708F900402F7808023A03192A2F013A2B
:100E740003192C2F073A03192E2F302F76087907E0
:100E8400FF3E0A128A11B82608000A128A11922615
:100E94000A128A114E300A128A116F270A128A1115
:100EA400F601F60A01300A128A1124270A128A115D
:100EB40008300A128A1102270A128A11F601F60A68
:100EC40002300A128A1124270A128A1101300A12E6
:100ED4008A1102270A128A116E2FF8007808F60088
:100EE4007608FA0000300A128A11A1260A128A1121
:100EF4002730F700F530F600F60B7E2FF70B7E2F28
:100F040003300A128A11B8260A128A110730F70030
:100F14007D30F600F60B8C2FF70B8C2F03300A1262
:100F24008A11B8260A128A110730F7007D30F600BC
:100F3400F60B9A2FF70B9A2F03300A128A11B82650
:100F44000A128A110730F7007D30F600F60BA82F3D
:100F5400F70BA82F02300A128A11B8260A128A1136
:100F64000730F7007D30F600F60BB62FF70BB62FDF
:100F740028300A128A11B8260A128A114130F70061
:100F8400EE30F600F60BC42FF70BC42F00000C3024
:100F94000A128A11B8260A128A114130F700EE307B
:100FA400F600F60BD32FF70BD32F000001300A12F3
:100FB4008A11B8260A128A114130F700EE30F60081
:100FC400F60BE22FF70BE22F000006300A128A110B
:100FD400B8260A128A114130F700EE30F600F60BFB
:100FE400F12FF70BF12F00000800FB010A128A1100
:0C0FF4007226FC0083010A128A11472FAC
:02400E0071FF40
:00000001FF
