:100000000A128A11D12FFF1B0D2883137F18831723
:100010000008840A0319FF0A080000308A00040857
:10002000840A8207003401340034003400340A3476
:100030000034003400346434003400340034E834D4
:100040000334003400341034273400340034A03436
:10005000863401340034403442340F340034803468
:100060009634983400340034E134F53405340034E7
:10007000CA349A343B340134003400340034103430
:1000800000340034003400340134003400340034CF
:1000900010340034003400340034013400340034AF
:1000A000003410340034003400340034013400349F
:1000B0000034003410343034313432343334343496
:1000C00035343634373438343934413442344334B7
:1000D00044344534463400343034783425343034B4
:1000E000323458340A340034733474346134743420
:1000F00065343A3400342034203433343A342034F4
:1001000000342034203434343A342034003464341D
:100110006134743461343A340034253475342C3409
:10012000253475340034203431343A3420340034EA
:10013000203432343A342034003425346C3475346D
:1001400000344F344E34203400344F344634463477
:0601500000343B340034D2
:10015A00F0340034F000831203130C1EB028700828
:10016A009900080064008001840A04060319003417
:10017A000406B828F0000A128A15F82770088312B4
:10018A00031393000800413449345134593461341B
:10019A00693471347934083401300A128A110A2117
:1001AA000A128A110D30F600F60BD9280800F10060
:1001BA00F0013A3071020318E82830307102031C4A
:1001CA00E828F001F00A700C08008316031387155B
:1001DA000716283083120313940083160313910120
:1001EA0094010930930008007E088A007F08820083
:1001FA00F9200A128A118000840A04087D0603196C
:10020A000034FF0A0319FE0AFD28F50083120313BE
:10021A00D8017508F0390A128A113F210A128A1187
:10022A007508F40003300310F40DFF3E031D18296E
:10023A000310740DF0390A128A113F210800F100E7
:10024A000A128A15EA270A128A118312031362080C
:10025A000A128A11BF200A128A1171088312031323
:10026A0061040A128A11BF200A128A110A128A1517
:10027A00F1270800F300831203135808F2007208EA
:10028A00F304730804380A128A1124210A128A1103
:10029A007308FB390A128A1124210A128A111030B2
:1002AA00F200F20B562900000800193083160313D6
:1002BA00990018128312031398178316031318133D
:1002CA0018159816831203131813181680308316FC
:1002DA0003139F008801F03083120313880008007B
:1002EA00F50083120313D801D80A7508F0390A12E7
:1002FA008A113F210A128A117508F400033003108B
:10030A00F40DFF3E031D84290310740DF0390A12FF
:10031A008A113F210800F3000830730203189D294F
:10032A007308593E840083130008831203139F0045
:10033A00F930F2000000F20B9F29A3290000831272
:10034A0003131F151F19A7291E08F101F1078316A8
:10035A0003131E08F001F0070800F800F601F70180
:10036A007608780784000A128A110D200A128A1167
:10037A000038031908007608780784000A128A11DF
:10038A000D200A128A110A128A1175210A128A117B
:10039A000130F6070318F70A0030F707B529720883
:1003AA0083120313FF00710884000A128A110320C2
:1003BA000A128A11003803190800720883120313FB
:1003CA00FF00710884000A128A1103200A128A1196
:1003DA000A128A11AF200A128A110130F107031892
:1003EA00F20AD429F401F501701C012A7208F407F3
:1003FA000318F50A7308F50701300310F20DF30D1F
:10040A00FF3E031D022A01300310F10CF00CFF3EDF
:10041A00031D092A71087004031DF9297508F101E1
:10042A00F1077408F001F0070800F8008030F700BF
:10043A007708F9002B2AC030272A9430272AD4308B
:10044A00272A8030F7007708F900362A7808023A16
:10045A000319202A013A0319222A073A0319242ADE
:10046A00262A76087907FF3E0A128A110A2108000D
:10047A008312031323082204210420040319822A65
:10048A00A901A90AA31B572A0130A8000310A00D2D
:10049A00A10DA20DA30DA80B4B2A0130A800280814
:1004AA00A907472A23082702031D652A22082602CC
:1004BA00031D652A21082502031D652A2008240236
:1004CA00031C752A2008A4022108031C210FA50277
:1004DA002208031C220FA6022308031C230FA702CB
:1004EA0001300310A30CA20CA10CA00CFF3E031DAB
:1004FA00762A0130A902031D572A2708A3002608D5
:10050A00A2002508A1002408A0000800F601F60AA6
:10051A0001300A128A111A220A128A1181300A1229
:10052A008A11B2210A128A1183120313081E9F2A02
:10053A009330A02A8F300A128A11B2210A128A1124
:10054A0069300A128A11B2210A128A11831203131C
:10055A00081FB12A9330B22A8F300A128A11B221A7
:10056A000A128A11F601F60A02300A128A111A22AE
:10057A000A128A1186300A128A11B2210A128A11C3
:10058A0083120313881ECB2A9330CC2A8F300A1287
:10059A008A11B2210A128A116F300A128A11B22103
:1005AA000A128A1183120313881FE02A93300A124F
:1005BA008A11B22108008F300A128A11B22108006A
:1005CA000030FC000030FB000030FA000030F90077
:1005DA00730872047104700403193A2BFD01FD0AB1
:1005EA00F31B052B0130F8000310F00DF10DF20D8D
:1005FA00F30DF80BF92A0130F8007808FD07F52AFF
:10060A000130F8000310F90DFA0DFB0DFC0DF80B83
:10061A00072B73087702031D1C2B72087602031D31
:10062A001C2B71087502031D1C2B70087402031C15
:10063A002D2B7008F4027108031C710FF502720861
:10064A00031C720FF6027308031C730FF702791466
:10065A0001300310F30CF20CF10CF00CFF3E031DF9
:10066A002E2B0130FD02031D052B7C08F3007B08AD
:10067A00F2007A08F1007908F0000800F80078081A
:10068A00F600760883120313E20000300A128A1178
:10069A0024210A128A112730F700F530F600F60BEA
:1006AA00542BF70B542B03300A128A110A210A120F
:1006BA008A110730F7007D30F600F60B622BF70B34
:1006CA00622B03300A128A110A210A128A11073090
:1006DA00F7007D30F600F60B702BF70B702B03300A
:1006EA000A128A110A210A128A110730F7007D308C
:1006FA00F600F60B7E2BF70B7E2B02300A128A11BC
:10070A000A210A128A110730F7007D30F600F60B2B
:10071A008C2BF70B8C2B28300A128A110A210A1209
:10072A008A114130F700EE30F600F60B9A2BF70BE0
:10073A009A2B00000C300A128A110A210A128A1115
:10074A004130F700EE30F600F60BA92BF70BA92B78
:10075A00000001300A128A110A210A128A11413054
:10076A00F700EE30F600F60BB82BF70BB82B0000AB
:10077A0006300A128A110A210A128A114130F70038
:10078A00EE30F600F60BC72BF70BC72B000008005C
:10079A000A128A115A210A128A110A128A11EA20A5
:1007AA000A128A114E300A128A1143230A128A1136
:1007BA000A128A11D1200A128A110A128A118B226C
:1007CA000A128A11831203138C1EE72B981CEF2B33
:1007DA00181218161A08C100410883160313E900F3
:1007EA0041306902031C3E2C4530690203183E2C35
:1007FA006908C33E83120313C10041088316031319
:10080A00D000013083120313C10083160313500A68
:10081A0083120313122C0310C10DFF3E031D102C6B
:10082A004108080503192C2C0130C1008316031353
:10083A00500A83120313232C0310C10DFF3E031D1C
:10084A00212C4108FF3AC200420888054E2C01308B
:10085A00C10083160313500A83120313362C0310A4
:10086A00C10DFF3E031D342C4108C2004208880412
:10087A004E2C831603136908453A031D5C2C831218
:10088A0003130130E306631C4C2C88014E2CF03014
:10089A0088000808C100C201410883160313EA0050
:1008AA0083120313420883160313EB00E22B831609
:1008BA0003136908463A031D212DD101D2010030E4
:1008CA0052020A30031951020318A42C00300A12EA
:1008DA008A1190210A128A1183160313510883126E
:1008EA000313C1004107D53E8400700883138000BA
:1008FA00840A7108800001300A128A1190210A12B2
:10090A008A1183160313510883120313C100410786
:10091A00443E8400700883138000840A71088000B2
:10092A00013083160313D1070318D20A0030D20705
:10093A00003052020A3003195102031C6B2C753025
:10094A00F1008030F2000A128A11D4210A128A11A7
:10095A0083160313D301D4015408803AFF00803070
:10096A007F02031DBA2C0A3053020318172D7B305D
:10097A0083120313C1004108AA0083160313530804
:10098A0083120313C2004207D53E84008313000872
:10099A00AB00840A0008AC008316031353088312C1
:1009AA000313C3004307443E84000008AD00840AD1
:1009BA000008AE00A0300A128A115D250A128A11B7
:1009CA00A030F1000030F2000A128A11D4210A1272
:1009DA008A11831603135408803AFF0080307F027D
:1009EA00031DF92C093053020318042D9730F10026
:1009FA008030F2000A128A11D4210A128A110130B7
:100A0A0083160313D3070318D40A0030D4075408F3
:100A1A00803AFF0080307F02031D152D0A305302F1
:100A2A00031CBC2C6030F1008030F2000A128A11DB
:100A3A00D4210A128A11E72B831603136908473A4D
:100A4A00031DE72B6230F1008030F2000A128A118E
:100A5A00D4210A128A115A3083120313C1004108A1
:100A6A00AA00831603136B0883120313AC01AC07A5
:100A7A00831603136A0883120313AB01AB07C03052
:100A8A000A128A115D250A128A11C030F10000305B
:100A9A00F2000A128A11D4210A128A116030F10076
:100AAA008030F2000A128A11D4210A128A11E72B25
:100ABA0083120313BD002B30AF002F08B50001309D
:100ACA00AA07FF302A0784000A128A110D200A1287
:100ADA008A11AF002F08C000C0080319CA2F4008A6
:100AEA00253A0319842D4008AF003D0884002F08D9
:100AFA00831380000130AF002F08BD07642DBE01AB
:100B0A00BF01BC018D2D3C150130AF002F08AA078B
:100B1A002A0884000A128A110D200A128A11303A10
:100B2A000319882D982D2A0884000A128A110D208B
:100B3A000A128A110A128A11DC200A128A11031C6B
:100B4A00F22D83120313BE01BF010A30F0000030F8
:100B5A00F100831203133F08F301F3073E08F20181
:100B6A00F2070A128A11F7210A128A1171088312EE
:100B7A000313BF01BF077008BE01BE072A0884001D
:100B8A000A128A110D200A128A11D03EAF00FF30D4
:100B9A0003180030B0002F08BE070318BF0A300838
:100BAA00BF070130AF002F08AA072A0884000A12DB
:100BBA008A110D200A128A110A128A11DC200A12DD
:100BCA008A11031CF22DAA2D3C16F22DBC170F2EEA
:100BDA00C030AF002F08BC040F2E0130831203135C
:100BEA00AA07FF302A0784000A128A110D200A1266
:100BFA008A11C000003A0319CA2F583A0319EB2D7B
:100C0A00343A0319E92D193A0319ED2D0D3A03194E
:100C1A00EB2D642D3C1E212E350884008313000819
:100C2A00B800840A0008B900840A0008BA00840AD5
:100C3A000008BB000430302E3508840083130008F6
:100C4A00AF00840A0008B0002F08B8003008B900C5
:100C5A00BA01BB010230AF002F08B507B22EC0019E
:100C6A00C00A40080A3A0319BB2E4008AF000130F7
:100C7A000310AF0DFF3E031D3D2E03102F0D013E45
:100C8A0084000A128A110D200A128A11B0000A126F
:100C9A008A110D200A128A11B1000A128A110D2036
:100CAA000A128A11B2000A128A110D200A128A1136
:100CBA00B30033083B02031D6C2E32083A02031DAF
:100CCA006C2E31083902031D6C2E30083802031CC1
:100CDA00BB2E0130AF002F08C007362EC001C00A54
:100CEA004008083A0319BB2E4008AF000130031030
:100CFA00AF0DFF3E031D7C2E03102F0D293E8400ED
:100D0A000A128A110D200A128A11B0000A128A11D7
:100D1A000D200A128A11B1000A128A110D200A1234
:100D2A008A11B2000A128A110D200A128A11B3001E
:100D3A0033083B02031DAB2E32083A02031DAB2EC9
:100D4A0031083902031DAB2E30083802031CBB2EB2
:100D5A000130AF002F08C007752E3C08C039803A11
:100D6A000319732E403A0319342EBB2E4008AF00E4
:100D7A00B001AF1BB0033008803AB1003F08803A97
:100D8A003102031DCA2E3E082F020318DA2E8312DF
:100D9A0003134008AF00B001AF1BB0032F08BE0217
:100DAA003008031CBF03BF02DE2E83120313BE01E9
:100DBA00BF013C1DF62E3F083E0403190F2F3030A9
:100DCA00AF003D0884002F08831380000130AF0074
:100DDA002F08BD07FF30BE070318BF0AFF30BF0741
:100DEA00E02E3F083E0403190F2F2030AF003D08C4
:100DFA0084002F08831380000130AF002F08BD073D
:100E0A00FF30BE070318BF0AFF30BF073F083E0482
:100E1A00031DFA2E4008B600B701B61BB703B22F5E
:100E2A000030A3000030A2000030A1000A30A00068
:100E3A003608AF0001300310AF0DFF3E031D202F0F
:100E4A0003102F0D013E84000A128A110D200A1286
:100E5A008A11F0000A128A110D200A128A11F10071
:100E6A000A128A110D200A128A11F2000A128A1134
:100E7A000D200A128A11F3003B08F7003A08F6001F
:100E8A003908F5003808F4000A128A11E5220A1214
:100E9A008A11730883120313A7007208A600710847
:100EAA00A5007008A4000A128A113D220A128A11AA
:100EBA00831203132008303EB0003008A62F3608EC
:100ECA00AF0001300310AF0DFF3E031D672F031063
:100EDA002F0D293E84000A128A110D200A128A1146
:100EEA00F0000A128A110D200A128A11F1000A1260
:100EFA008A110D200A128A11F2000A128A110D2093
:100F0A000A128A11F3003B08F7003A08F60039087A
:100F1A00F5003808F4000A128A11E5220A128A1129
:100F2A0070080F3983120313B0003008B400340874
:100F3A00493E84000A128A110D200A128A11AF0052
:100F4A002F08C0004008AF003D0884002F08831313
:100F5A0080000130AF002F08BD07FF30B607031825
:100F6A00B70AFF30B707FF303706031DBE2FFF3021
:100F7A0036060319642D3C08C039803A0319642FD8
:100F8A00403A0319152FA72FA72F831203133D08E1
:100F9A008400831380010800E30183134430840032
:100FAA0059300A128A11B7200A128A11D5308400E0
:100FBA00EA300A128A11B7200A128A118316031319
:100FCA000A128A11AD200A128A11EA000A128A113B
:100FDA00AE200A128A11EB006230FD000030FE00DA
:100FEA00C830FF00593084000A128A11FD2083019B
:060FFA000A128A11CD2B42
:101FD4000A128A15F82783160313111408000A122B
:101FE4008A15F827831603131115080083160313A3
:0C1FF40011081F3903191419F82F0800F8
:02400E0071FF40
:00000001FF
