:060000000A128A11122809
:10000800FE00030EF0000408F1000A08F200831253
:1000180003137F08F3000A128A11B5290A128A11FC
:100028001528F801A701A8010A128A11A822F900C7
:1000380083010A128A1120280B168B108B150B10BE
:100048008B170B17E0308316031386008801831281
:10005800031388010A128A116D220A128A114E307E
:100068000A128A11BC200A128A1183120313A301EF
:10007800A30A01300A128A11DB210A128A112C30D4
:100088000A128A118F210A128A1183120313A301FB
:10009800A30A02300A128A11DB210A128A112530BA
:1000A8000A128A118F210A128A110130831203134E
:1000B80027062804031D7B280A128A117C220A12AB
:1000C8008A1183120313A301A30A01300A128A11A9
:1000D800DB210A128A1101300A128A118F210A12B1
:1000E8008A110130831203138800A701A801023086
:1000F80027062804031D9B280A128A117C220A124B
:100108008A1183120313A301A30A01300A128A1168
:10011800DB210A128A110D300A128A118F210A1264
:100128008A110230831203138800A701A801033043
:1001380027062804031D59280A128A117C220A124C
:100148008A1183120313A301A30A01300A128A1128
:10015800DB210A128A1119300A128A118F210A1218
:100168008A110430831203138800A701A8015928B3
:1001780083120313A5002508A3002308F700003005
:100188000A128A1156220A128A112730831203137F
:10019800A400F530A300A30BCF28A40BCF2803306D
:1001A8000A128A113A220A128A110730831203139B
:1001B800A4007D30A300A30BDF28A40BDF280330A5
:1001C8000A128A113A220A128A110730831203137B
:1001D800A4007D30A300A30BEF28A40BEF28033065
:1001E8000A128A113A220A128A110730831203135B
:1001F800A4007D30A300A30BFF28A40BFF28023026
:100208000A128A113A220A128A110730831203133A
:10021800A4007D30A300A30B0F29A40B0F292830BD
:100228000A128A113A220A128A11413083120313E0
:10023800A400EE30A300A30B1F29A40B1F29000064
:100248000C300A128A113A220A128A11413083129A
:100258000313A400EE30A300A30B3029A40B30290C
:10026800000001300A128A113A220A128A1141301A
:1002780083120313A400EE30A300A30B4129A40B9F
:100288004129000006300A128A113A220A128A11FC
:10029800413083120313A400EE30A300A30B5229AC
:1002A800A40B52290000080001308A000408840ABF
:1002B8008207003452344234353420345034723496
:1002C80065347334733465346434003452344234DE
:1002D80036342034503472346534733473346534AE
:1002E8006434003452344234373420345034723455
:1002F80065347334733465346434003457346F347C
:1003080072346C34643421340034483465346C34C9
:100318006C346F34003483120313A500A301A401C5
:100328002308250784000A128A1158210A128A1103
:100338000038031908002308250784000A128A11C7
:1003480058210A128A110A128A1100220A128A11E5
:10035800013083120313A3070318A40A0030A4076B
:1003680094298B138B1CBA298B10CF290B1CCF29EE
:100378000B10861EC3290130A7000030A800061FF5
:10038800C9290230A7000030A800861FCF290330F2
:10039800A7000030A8008B177308FF0072088A00B6
:1003A80071088400700E8300FE0E7E0E0900831211
:1003B8000313A5008030A4002408A600EE29C0304D
:1003C800EA299430EA29D430EA298030A4002408A4
:1003D800A600F9292508023A0319E329013A031965
:1003E800E529073A0319E729E92923082607FF3EE3
:1003F8000A128A113A22080083120313A200F80194
:10040800F80A2208F0390A128A111D220A128A11E2
:10041800831203132208A10003300310A10DFF3E2D
:10042800031D112A0310210DF0390A128A111D2209
:10043800080083120313A0007808F6007608A004C9
:10044800200804380A128A1156220A128A118312C5
:1004580003132008FB390A128A1156220A128A113C
:100468001030F600F60B362A00000800831203133A
:10047800A200F8012208F0390A128A111D220A1274
:100488008A11831203132208A10003300310A10D5F
:10049800FF3E031D4A2A0310210DF0390A128A1162
:1004A8001D220800F5000A128A11A1220A128A11D7
:1004B80077080A128A1189220A128A1175087904A2
:1004C8000A128A1189220A128A110A128A119A2298
:1004D80008008316031387150716283083120313A1
:1004E80094008316031391019401093093000800C6
:1004F80001300A128A113A220A128A110D30831227
:100508000313A300A30B862A0800F4000A128A1119
:1005180092227408831203139300080083160313AE
:1005280011081F3903191419922A08000A128A118E
:10053800922283160313111508000A128A119222B7
:0A0548008316031311140800083491
:02400E0071FF40
:00000001FF
