:100000000A128A11F72F00308A000408840A820736
:10001000003457346F3472346C3464342134003417
:0C002000483465346C346C346F340034A8
:100CDE0008340A128A117E26831603131114080093
:100CEE000A128A117E268316031311150800831625
:100CFE00031311081F39031914197E2E0800F00072
:100D0E000A128A117E2670088312031393000800BC
:100D1E0083160313871507162830831203139400C6
:100D2E008316031391019401093093000800F1001A
:100D3E000A128A1170260A128A1179080A128A1169
:100D4E0086260A128A1171087B040A128A118626D7
:100D5E000A128A110A128A1177260800F500FA0182
:100D6E007508F0390A128A11CD260A128A117508F1
:100D7E00F40003300310F40DFF3E031DC12E0310CB
:100D8E00740DF0390A128A11CD260800F3007A0884
:100D9E00F2007208F304730804380A128A119E26B0
:100DAE000A128A117308FB390A128A119E260A1238
:100DBE008A111030F200F20BE22E00000800F5004E
:100DCE00FA01FA0A7508F0390A128A11CD260A12AA
:100DDE008A117508F40003300310F40DFF3E031D55
:100DEE00F32E0310740DF0390A128A11CD26080065
:100DFE00F800F601F7017608780784000A128A11C6
:100E0E0003200A128A1100380319080076087807A1
:100E1E0084000A128A1103200A128A110A128A11F8
:100E2E00E6260A128A110130F6070318F70A003077
:100E3E00F707022FF7003B2F7608BF3E0A128A11E2
:100E4E00B52608007608933E0A128A11B5260800C8
:100E5E007608D33E0A128A11B526080076087F3E20
:100E6E000A128A11B52608007708023A0319232FB1
:100E7E00013A0319292F073A03192F2F352F08008E
:100E8E000A128A118F260A128A114E300A128A11FC
:100E9E006F270A128A11F601F60A01300A128A1118
:100EAE0021270A128A1108300A128A11FF260A1205
:100EBE008A11F601F60A02300A128A1121270A1245
:100ECE008A1101300A128A11FF260A128A116E2F18
:100EDE00F8007808F6007608F90000300A128A1138
:100EEE009E260A128A112730F700F530F600F60B0F
:100EFE007E2FF70B7E2F03300A128A11B5260A12A7
:100F0E008A110730F7007D30F600F60B8C2FF70BA9
:100F1E008C2F03300A128A11B5260A128A11073055
:100F2E00F7007D30F600F60B9A2FF70B9A2F033051
:100F3E000A128A11B5260A128A110730F7007D307F
:100F4E00F600F60BA82FF70BA82F02300A128A1103
:100F5E00B5260A128A110730F7007D30F600F60B1F
:100F6E00B62FF70BB62F28300A128A11B5260A12A1
:100F7E008A114130F700EE30F600F60BC42FF70B56
:100F8E00C42F00000C300A128A11B5260A128A11DB
:100F9E004130F700EE30F600F60BD32FF70BD32FC0
:100FAE00000001300A128A11B5260A128A11413048
:100FBE00F700EE30F600F60BE22FF70BE22F0000F3
:100FCE0006300A128A11B5260A128A114130F7002C
:100FDE00EE30F600F60BF12FF70BF12F00000800A4
:100FEE00FA010A128A116F26FB0083010A128A1176
:020FFE00472F7B
:02400E0071FF40
:00000001FF
