:100000000A128A11EB2FFF1B0D2883137F18831709
:100010000008840A0319FF0A080000308A00040857
:10002000840A8207003401340034003400340A3476
:100030000034003400346434003400340034E834D4
:100040000334003400341034273400340034A03436
:10005000863401340034403442340F340034803468
:100060009634983400340034E134F53405340034E7
:10007000CA349A343B3444344134543441343A34ED
:10008000003425346C34753400340A3400342C3494
:0200900000343A
:1009EE00F000831203130C1EF82C700899000800F7
:1009FE004134493451345934613469347134793461
:100A0E00003402340034023408347E088A007F0831
:100A1E0082000C250A128A118000840A04087D06C1
:100A2E0003190034FF0A0319FE0A102D193083161C
:100A3E0003139900181283120313981783160313C6
:100A4E0018131815981683120313181318168030DE
:100A5E00831603139F008801831203138801080075
:100A6E002F3083120313C2004208AA004108AE00C1
:100A7E004008AD003F08AC003E08AB0043300A1200
:100A8E008A11CD260A128A114330F1000030F2008D
:100A9E000A128A1175250800F30008307302031834
:100AAE00602D7308553E84008313000883120313D0
:100ABE009F00F930F2000000F20B622D662D00004F
:100ACE00831203131F151F196A2D1E08F101F1075A
:100ADE00831603131E08F001F00708007208831234
:100AEE000313FF00710884000A128A1103200A12F0
:100AFE008A11003803190800720883120313FF00CD
:100B0E00710884000A128A1103200A128A110A122D
:100B1E008A11F7240A128A110130F1070318F20A1A
:100B2E00752D8312031323082204210420040319B4
:100B3E00DD2DA901A90AA31BB22D0130A8000310B7
:100B4E00A00DA10DA20DA30DA80BA62D0130A8007E
:100B5E002808A907A22D23082702031DC02D22084D
:100B6E002602031DC02D21082502031DC02D2008BD
:100B7E002402031CD02D2008A4022108031C210FDF
:100B8E00A5022208031C220FA6022308031C230F12
:100B9E00A70201300310A30CA20CA10CA00CFF3E67
:100BAE00031DD12D0130A902031DB22D2708A3006C
:100BBE002608A2002508A1002408A0000800003085
:100BCE00FC000030FB000030FA000030F900730822
:100BDE0072047104700403193B2EFD01FD0AF31B10
:100BEE00062E0130F8000310F00DF10DF20DF30D8D
:100BFE00F80BFA2D0130F8007808FD07F62D0130BC
:100C0E00F8000310F90DFA0DFB0DFC0DF80B082E74
:100C1E0073087702031D1D2E72087602031D1D2E0A
:100C2E0071087502031D1D2E70087402031C2E2EF2
:100C3E007008F4027108031C710FF5027208031C90
:100C4E00720FF6027308031C730FF702791401304A
:100C5E000310F30CF20CF10CF00CFF3E031D2F2EC3
:100C6E000130FD02031D062E7C08F3007B08F20006
:100C7E007A08F1007908F00008000A128A111D2581
:100C8E000A128A1100300A128A1153250A128A1189
:100C9E00710883120313D101D1077008D001D00758
:100CAE0001300A128A1153250A128A117108831211
:100CBE000313D301D3077008D201D2072930F100F4
:100CCE008030F2000A128A1175250A128A118312D7
:100CDE0003135008BE005108BF00C001C1010A1223
:100CEE008A1137250A128A113530F1008030F20050
:100CFE000A128A1175250A128A11831203135208D9
:100D0E00BE005308BF00C001C1010A128A11372567
:100D1E000A128A113330F1008030F2000A128A1161
:100D2E0075250A128A11831203138C1E492E981CE4
:100D3E00A22E181218161A08D03ECE004E08E50044
:100D4E0065080319C02E053065020318C02E65080C
:100D5E00FF3ECE004E08D4000130CE00540AB92E0C
:100D6E000310CE0DFF3E031DB72E4E08CF004F08C9
:100D7E0088066508053A031D492E0130E606661CF5
:100D8E00CB2E0F308800492E8801492E8312031373
:100D9E00BC002B30AF002F08BB000130AA07FF307C
:100DAE002A0784000A128A110D200A128A11AF0036
:100DBE002F08BD00BD080319E62F3D08253A03197B
:100DCE00F42E3D08AF003C0884002F0883138000EA
:100DDE000130AF002F08BC07D42EB401FD2E3416FF
:100DEE00FD2EC030AF002F08B404122F0130AA0719
:100DFE00FF302A0784000A128A110D200A128A1166
:100E0E00BD00003A0319E62F6C3A0319F62E193A73
:100E1E000319F82ED42E341E242F3B08840083137E
:100E2E000008B700840A0008B800840A0008B90058
:100E3E00840A0008BA000430332F3B088400831361
:100E4E000008AF00840A0008B0002F08B700300871
:100E5E00B800B901BA010230AF002F08BB07BD01BF
:100E6E00BD0A3D080A3A0319782F3D08AF0001303C
:100E7E000310AF0DFF3E031D3F2F03102F0D013E3C
:100E8E0084000A128A110D200A128A11B0000A1269
:100E9E008A110D200A128A11B1000A128A110D2030
:100EAE000A128A11B2000A128A110D200A128A1130
:100EBE00B30033083A02031D6E2F32083902031DA8
:100ECE006E2F31083802031D6E2F30083702031CB7
:100EDE00782F0130AF002F08BD073D080A3A031DD9
:100EEE003C2F3D08B500B601B51BB603FF30B50764
:100EFE000318B60AFF30B607FF303606031D892FDA
:100F0E00FF3035060319D42E0030A3000030A200A6
:100F1E000030A1000A30A0003508AF0001300310E8
:100F2E00AF0DFF3E031D962F03102F0D013E8400C3
:100F3E000A128A110D200A128A11F0000A128A1161
:100F4E000D200A128A11F1000A128A110D200A12BE
:100F5E008A11F2000A128A110D200A128A11F30068
:100F6E003A08F7003908F6003808F5003708F4009B
:100F7E000A128A11E6250A128A11730883120313C4
:100F8E00A7007208A6007108A5007008A4000A1236
:100F9E008A1198250A128A11831203132008303EF3
:100FAE00B0003008BD003D08AF003C0884002F089B
:100FBE00831380000130AF002F08BC077D2F3C0843
:100FCE008400831380010800E601E201E301E401DD
:100FDE00E50183136230FD000430FE00FF30FF0098
:100FEE00553084000A128A11102583010A128A11C3
:020FFE00442E7F
:02400E0071FF40
:00000001FF
