:100000000A128A11DF2FFF1B0D2883137F18831715
:100010000008840A0319FF0A080000308A00040857
:10002000840A8207003401340034003400340A3476
:100030000034003400346434003400340034E834D4
:100040000334003400341034273400340034A03436
:10005000863401340034403442340F340034803468
:100060009634983400340034E134F53405340034E7
:10007000CA349A343B340134003400340034103430
:1000800000340034003400340134003400340034CF
:1000900010340034003400340034013400340034AF
:1000A000003410340034003400340034013400349F
:1000B0000034003410343034313432343334343496
:1000C00035343634373438343934413442344334B7
:1000D00044344534463400343034783425343034B4
:1000E000323458340A340034733474346134743420
:1000F00065343A34003464346134743461343A34ED
:100100000034253475342C342534753400342534CA
:0A0110006C34753400343B340034C5
:10051A00F000831203130C1E8E2A7008990008003B
:10052A0064008001840A0406031900340406962A2A
:10053A004134493451345934613469347134793429
:10054A000834F100F0013A3071020318B22A30304F
:10055A007102031CB22AF001F00A700C08007E082E
:10056A008A007F088200B4220A128A118000840A53
:10057A0004087D0603190034FF0A0319FE0AB82A83
:10058A00193083160313990018128312031398174C
:10059A0083160313181318159816831203131813C6
:1005AA0018168030831603139F008801F0308312D7
:1005BA00031388000800F300083073020318ED2AB9
:1005CA0073085A3E840083130008831203139F00A2
:1005DA00F930F2000000F20BEF2AF32A000083122E
:1005EA0003131F151F19F72A1E08F101F1078316B5
:1005FA0003131E08F001F0070800720883120313A0
:10060A00FF00710884000A128A1103200A128A1153
:10061A00003803190800720883120313FF007108D7
:10062A0084000A128A1103200A128A110A128A11F4
:10063A008D220A128A110130F1070318F20A022BDD
:10064A00F401F501701C2F2B7208F4070318F50A40
:10065A007308F50701300310F20DF30DFF3E031D79
:10066A00302B01300310F10CF00CFF3E031D372B29
:10067A0071087004031D272B7508F101F10774082E
:10068A00F001F0070800831203132308220421044F
:10069A00200403198D2BA901A90AA31B622B01307F
:1006AA00A8000310A00DA10DA20DA30DA80B562B97
:1006BA000130A8002808A907522B23082702031D86
:1006CA00702B22082602031D702B21082502031D08
:1006DA00702B20082402031C802B2008A402210866
:1006EA00031C210FA5022208031C220FA6022308BD
:1006FA00031C230FA70201300310A30CA20CA10CA8
:10070A00A00CFF3E031D812B0130A902031D622BA1
:10071A002708A3002608A2002508A1002408A00093
:10072A0008000030FC000030FB000030FA00003006
:10073A00F90073087204710470040319EB2BFD01AC
:10074A00FD0AF31BB62B0130F8000310F00DF10D72
:10075A00F20DF30DF80BAA2B0130F8007808FD070B
:10076A00A62B0130F8000310F90DFA0DFB0DFC0D54
:10077A00F80BB82B73087702031DCD2B720876028B
:10078A00031DCD2B71087502031DCD2B7008740251
:10079A00031CDE2B7008F4027108031C710FF502AA
:1007AA007208031C720FF6027308031C730FF70218
:1007BA00791401300310F30CF20CF10CF00CFF3E2B
:1007CA00031DDF2B0130FD02031DB62B7C08F3004D
:1007DA007B08F2007A08F1007908F00008000A1292
:1007EA008A11C5220A128A11831203138C1EF92B4D
:1007FA00981C012C181218161A08C10041088316F1
:10080A000313EB0041306B02031C502C45306B0282
:10081A000318502C6B08C33E83120313C10041080E
:10082A0083160313D000013083120313C100831609
:10083A000313500A83120313242C0310C10DFF3E25
:10084A00031D222C4108080503193E2C0130C10062
:10085A0083160313500A83120313352C0310C10D98
:10086A00FF3E031D332C4108FF3AC20042088805A7
:10087A005E2C0130C10083160313500A831203133E
:10088A00482C0310C10DFF3E031D462C4108C2002F
:10089A00420888045E2C6B08453A031D6C2C8312AF
:1008AA0003130130E306631C5C2C88015E2CF030D4
:1008BA0088000808C100C201410883160313E90031
:1008CA0083120313420883160313EA00F92B6B08F9
:1008DA00463A031D2F2DD101D201003052020A30AF
:1008EA00031951020318B22C00300A128A11E022AD
:1008FA000A128A1183160313510883120313C100C3
:10090A004107D53E8400700883138000840A710869
:10091A00800001300A128A11E0220A128A11831613
:10092A000313510883120313C1004107443E840094
:10093A00700883138000840A7108800001308316CE
:10094A000313D1070318D20A0030D207003052022B
:10095A000A3003195102031C792C6930F1008030E6
:10096A00F2000A128A1102230A128A118316031349
:10097A00D301D4015408803AFF0080307F02031D5E
:10098A00C82C0A3053020318252D6F308312031323
:10099A00C1004108AA0083160313530883120313E4
:1009AA00C2004207D53E840083130008AB00840AC4
:1009BA000008AC0083160313530883120313C30001
:1009CA004307443E84000008AD00840A0008AE00D4
:1009DA00A0300A128A116B250A128A11A030F1007E
:1009EA000030F2000A128A1102230A128A118316AF
:1009FA0003135408803AFF0080307F02031D072D3D
:100A0A00093053020318122D7930F1008030F200B8
:100A1A000A128A1102230A128A1101308316031359
:100A2A00D3070318D40A0030D4075408803AFF00C9
:100A3A0080307F02031D232D0A305302031CCA2C67
:100A4A006030F1008030F2000A128A1102230A1281
:100A5A008A11F92B831603136B08473A031DF92BE6
:100A6A006230F1008030F2000A128A1102230A125F
:100A7A008A115A3083120313C1004108AA0083164F
:100A8A0003136A0883120313AC01AC07831603131A
:100A9A00690883120313AB01AB07C0300A128A112B
:100AAA006B250A128A11C030F1000030F2000A12D6
:100ABA008A1102230A128A116030F1008030F20092
:100ACA000A128A1102230A128A11F92B83120313BA
:100ADA00BD002B30AF002F08B5000130AA07FF3048
:100AEA002A0784000A128A110D200A128A11AF00FD
:100AFA002F08C000C0080319D82F4008253A031947
:100B0A00922D4008AF003D0884002F08831380000F
:100B1A000130AF002F08BD07722DBE01BF01BC0115
:100B2A009B2D3C150130AF002F08AA072A08840024
:100B3A000A128A110D200A128A11303A0319962DC7
:100B4A00A62D2A0884000A128A110D200A128A1177
:100B5A000A128A11A6220A128A11031C002E831273
:100B6A000313BE01BF010A30F0000030F100831206
:100B7A0003133F08F301F3073E08F201F2070A12D2
:100B8A008A1125230A128A11710883120313BF01DD
:100B9A00BF077008BE01BE072A0884000A128A111C
:100BAA000D200A128A11D03EAF00FF300318003020
:100BBA00B0002F08BE070318BF0A3008BF0701306C
:100BCA00AF002F08AA072A0884000A128A110D20EA
:100BDA000A128A110A128A11A6220A128A11031CFF
:100BEA00002EB82D3C16002EBC171D2EC030AF00AB
:100BFA002F08BC041D2E013083120313AA07FF30ED
:100C0A002A0784000A128A110D200A128A11C000CA
:100C1A00003A0319D82F583A0319F92D343A03190F
:100C2A00F72D193A0319FB2D0D3A0319F92D722DD7
:100C3A003C1E2F2E3508840083130008B800840A4E
:100C4A000008B900840A0008BA00840A0008BB0038
:100C5A0004303E2E3508840083130008AF00840A4E
:100C6A000008B0002F08B8003008B900BA01BB016B
:100C7A000230AF002F08B507C02EC001C00A4008D5
:100C8A000A3A0319C92E4008AF0001300310AF0D0C
:100C9A00FF3E031D4B2E03102F0D013E84000A1246
:100CAA008A110D200A128A11B0000A128A110D2027
:100CBA000A128A11B1000A128A110D200A128A1127
:100CCA00B2000A128A110D200A128A11B3003308DF
:100CDA003B02031D7A2E32083A02031D7A2E31088E
:100CEA003902031D7A2E30083802031CC92E01303E
:100CFA00AF002F08C007442EC001C00A4008083AB6
:100D0A000319C92E4008AF0001300310AF0DFF3E92
:100D1A00031D8A2E03102F0D293E84000A128A1100
:100D2A000D200A128A11B0000A128A110D200A1225
:100D3A008A11B1000A128A110D200A128A11B20010
:100D4A000A128A110D200A128A11B30033083B02D3
:100D5A00031DB92E32083A02031DB92E3108390291
:100D6A00031DB92E30083802031CC92E0130AF000A
:100D7A002F08C007832E3C08C039803A0319812EF8
:100D8A00403A0319422EC92E4008AF00B001AF1BEA
:100D9A00B0033008803AB1003F08803A3102031D9F
:100DAA00D82E3E082F020318E82E83120313400898
:100DBA00AF00B001AF1BB0032F08BE023008031CFE
:100DCA00BF03BF02EC2E83120313BE01BF013C1DF9
:100DDA00042F3F083E0403191D2F3030AF003D0891
:100DEA0084002F08831380000130AF002F08BD074D
:100DFA00FF30BE070318BF0AFF30BF07EE2E3F08B9
:100E0A003E0403191D2F2030AF003D0884002F082F
:100E1A00831380000130AF002F08BD07FF30BE07E3
:100E2A000318BF0AFF30BF073F083E04031D082FFF
:100E3A004008B600B701B61BB703C02F0030A300A5
:100E4A000030A2000030A1000A30A0003608AF002E
:100E5A0001300310AF0DFF3E031D2E2F03102F0D7F
:100E6A00013E84000A128A110D200A128A11F0002A
:100E7A000A128A110D200A128A11F1000A128A1125
:100E8A000D200A128A11F2000A128A110D200A1282
:100E9A008A11F3003B08F7003A08F6003908F50012
:100EAA003808F4000A128A1196230A128A11730862
:100EBA0083120313A7007208A6007108A500700820
:100ECA00A4000A128A1148230A128A1183120313F0
:100EDA002008303EB0003008B42F3608AF00013089
:100EEA000310AF0DFF3E031D752F03102F0D293E72
:100EFA0084000A128A110D200A128A11F0000A12BD
:100F0A008A110D200A128A11F1000A128A110D2083
:100F1A000A128A11F2000A128A110D200A128A1183
:100F2A00F3003B08F7003A08F6003908F5003808DC
:100F3A00F4000A128A1196230A128A1170080F39CC
:100F4A0083120313B0003008B4003408493E840009
:100F5A000A128A110D200A128A11AF002F08C00046
:100F6A004008AF003D0884002F0883138000013039
:100F7A00AF002F08BD07FF30B6070318B70AFF30C6
:100F8A00B707FF303706031DCC2FFF30360603198B
:100F9A00722D3C08C039803A0319722F403A03195E
:100FAA00232FB52FB52F831203133D088400831313
:100FBA0080010800E3018313443084005A300A1286
:100FCA008A1195220A128A11D5308400EC300A124D
:100FDA008A1195220A128A116330FD000230FE003E
:100FEA009D30FF005A3084000A128A11B822830108
:060FFA000A128A11F42B1B
:02400E0071FF40
:00000001FF
