:060000000A128A11122809
:10000800FE00030EF0000408F1000A08F200831253
:1000180003137F08F3000A128A11642A0A128A114C
:100028001528F801A001A101A201A301A401A501BD
:10003800A601A701A801A9010A128A118323F900C0
:1000480083010A128A1128280B168B108B150B10A6
:100058008B170B17FF308316031386008801831252
:10006800031388010A128A1148230A128A114E3092
:100078000A128A114A210A128A1183120313AD0146
:10008800AD0A01300A128A11B6220A128A115930B1
:100098000A128A1190220A128A1183120313AD01DF
:1000A800AD0A02300A128A11B6220A128A113D30AC
:1000B8000A128A1190220A128A110130831203133C
:1000C80020062104031DAA280A128A1157230A129E
:1000D8008A1183120313AD01AD0A01300A128A1185
:1000E800B6220A128A1101300A128A1190220A12C3
:1000F8008A11013083120313A2060030A3062308D5
:10010800220403199428281428088800AD01AD0A90
:1001180002300A128A11B6220A128A114430A5281E
:10012800013083120313A8060030A90628088800A6
:10013800AD01AD0A02300A128A11B6220A128A11DA
:1001480025300A128A1190220A128A11023083126B
:10015800031320062104031DF3280A128A115723CA
:100168000A128A1183120313AD01AD0A01300A1273
:100178008A11B6220A128A110D300A128A119022A7
:100188000A128A11013083120313A4060030A5064F
:10019800250824040319DD28A81428088800AD01BF
:1001A800AD0A02300A128A11B6220A128A114B309D
:1001B800EE28023083120313A8060030A906280887
:1001C8008800AD01AD0A02300A128A11B6220A125D
:1001D8008A112D300A128A1190220A128A110330CC
:1001E8008312031320062104031D3C290A128A11D5
:1001F80057230A128A1183120313AD01AD0A013085
:100208000A128A11B6220A128A1119300A128A11A0
:1002180090220A128A11013083120313A6060030B5
:10022800A706270826040319262928152808880060
:10023800AD01AD0A02300A128A11B6220A128A11D9
:1002480052303729043083120313A8060030A90658
:1002580028088800AD01AD0A02300A128A11B622B8
:100268000A128A1135300A128A1190220A128A114A
:1002780083120313A001A1014130B200EE30B10096
:10028800B10B4429B20B44290000612883120313DF
:10029800AF002F08AD002D08F70000300A128A11B0
:1002A80031230A128A11273083120313AE00F53066
:1002B800AD00AD0B5D29AE0B5D2903300A128A1122
:1002C80015230A128A11073083120313AE007D30FA
:1002D800AD00AD0B6D29AE0B6D2903300A128A11E2
:1002E80015230A128A11073083120313AE007D30DA
:1002F800AD00AD0B7D29AE0B7D2903300A128A11A2
:1003080015230A128A11073083120313AE007D30B9
:10031800AD00AD0B8D29AE0B8D2902300A128A1162
:1003280015230A128A11073083120313AE007D3099
:10033800AD00AD0B9D29AE0B9D2928300A128A11FC
:1003480015230A128A11413083120313AE00EE30CE
:10035800AD00AD0BAD29AE0BAD2900000C300A1273
:100368008A1115230A128A11413083120313AE0031
:10037800EE30AD00AD0BBE29AE0BBE29000001303A
:100388000A128A1115230A128A11413083120313A3
:10039800AE00EE30AD00AD0BCF29AE0BCF2900007B
:1003A80006300A128A1115230A128A114130831263
:1003B8000313AE00EE30AD00AD0BE029AE0BE02923
:0403C8000000080029
:1004000002308A000408840A8207003452344234DD
:100410003534203450347234653473347334653475
:10042000643400345234423436342034503472341C
:100430006534733473346534643400345234423474
:100440003734203450347234653473347334653443
:1004500064340034523431343A3420344F34463426
:1004600046340034523432343A3420344F34463433
:1004700046340034523433343A3420344F34463422
:100480004634003457346F3472346C34643421345D
:100490000034523431343A3420344F344E34003442
:1004A000523432343A3420344F344E3400345234DF
:1004B00033343A3420344F344E34003448346534C5
:1004C0006C346C346F3400348B138B1C692A8B10A2
:1004D000842A0B1C842A0B10861E742A861A6E2A04
:1004E0000130A0000030A100061F7C2A061B762ADE
:1004F0000230A0000030A100861F842A861B7E2ABD
:100500000330A0000030A1008B177308FF007208B1
:100510008A0071088400700E8300FE0E7E0E0900B2
:1005200083120313AF00AD01AE012D082F07840025
:100530000A128A1100220A128A11003803190800CF
:100540002D082F0784000A128A1100220A128A112C
:100550000A128A11DB220A128A1101308312031354
:10056000AD070318AE0A0030AE07952A83120313B5
:10057000AF008030AE002E08B000C92AC030C52AB6
:100580009430C52AD430C52A8030AE002E08B00081
:10059000D42A2F08023A0319BE2A013A0319C02AA5
:1005A000073A0319C22AC42A2D083007FF3E0A124F
:1005B0008A111523080083120313AC00F801F80A0E
:1005C0002C08F0390A128A11F8220A128A118312B1
:1005D00003132C08AB0003300310AB0DFF3E031DCB
:1005E000EC2A03102B0DF0390A128A11F8220800A8
:1005F00083120313AA007808F6007608AA042A08D2
:1006000004380A128A1131230A128A118312031341
:100610002A08FB390A128A1131230A128A11103072
:10062000F600F60B112B0000080083120313AC0038
:10063000F8012C08F0390A128A11F8220A128A11DC
:10064000831203132C08AB0003300310AB0DFF3EE5
:10065000031D252B03102B0DF0390A128A11F822E5
:100660000800F5000A128A117C230A128A11770801
:100670000A128A1164230A128A11750879040A126F
:100680008A1164230A128A110A128A11752308003A
:10069000831603138715071628308312031394005B
:1006A000831603139101940109309300080001306F
:1006B0000A128A1115230A128A110D3083120313AC
:1006C000AD00AD0B612B0800F4000A128A116D23F6
:1006D0007408831203139300080083160313110890
:1006E0001F39031914196D2B08000A128A116D2382
:1006F00083160313111508000A128A116D2383163D
:08070000031311140800083472
:02400E0071FF40
:00000001FF
